:1000000010308A00002800000A108A100A118207A6
:10001000773441343B345B344D345E347E34433486
:100020007F345F340A108A100A118207F734C13412
:10003000BB34DB34CD34DE34FE34C334FF34DF3440
:10004000C0014008073C031C3F280310BF0C0318E5
:100050002B2807112C28071520112008831687004C
:100060008312A01020088316870083128714A01023
:1000700020088316870083128710C00A21280800F1
:100080002010200883168700831207143908BF0048
:1000900020203A08BF002020201020088316870067
:1000A000831207100800201020088316870083128F
:1000B00007143C08BF002020201520088316870065
:1000C00000008312BD013D08073C031C8228201557
:1000D00020088316870083120719702803107128DF
:1000E0000314BE0CA0102008831687008312871407
:1000F0007928A01020088316870083128710802893
:10010000BD0A632820102008831687008312071079
:100110003E08F8000800201020088316870083128C
:1001200007109228A01020088316870083128710DA
:100130008E30B900BA0140209030B900A430BA0026
:1001400040208130BC0053207808B800380880393E
:100150000319AE288030B900BA0140208A110A166E
:100160002A2841308400831300080319C528013070
:10017000F800F701F70BBA28F80BB9284A30F70056
:10018000F70BC028C328800BB72808008316061277
:10019000831206169630C100B12083160612831210
:1001A00006120800AE012E08073C031CF42839088B
:1001B00031050319E0288316861083128614E4287B
:1001C00083168610831286100310B10C8316061056
:1001D00083120614EB2883160610831206100130D2
:1001E000C100B120AE0AD3288030B10008002D082C
:1001F0000420B800B900D2202C080420B800B900AF
:10020000D2202B080420B800B900D2202A080420EC
:10021000B800B900D22029080420B800B900D220C3
:1002200028080420B800B900D220831606118312D2
:1002300006150930F700F70B1B291E298316061136
:10024000831206110530C100B1200800F701F80142
:10025000410803104218F707F70CF80CC218F7070B
:10026000F70CF80C4219F707F70CF80CC219F7074E
:10027000F70CF80C421AF707F70CF80CC21AF7073C
:10028000F70CF80C421BF707F70CF80CC21BF7072A
:10029000F70CF80C08003D08BE003E0EF7000F30CA
:1002A000F7057708C000C1000A30C200262178088F
:1002B000BD003E0EF700F030F7057708F70E0F305F
:1002C000F7057708BD073D08F80008003C08F8016D
:1002D0003B0203186E293B08F7007A29F701083022
:1002E000BD00BB0DF70D3C0877020318F700F80DB1
:1002F000BD0B71290800C830C100B120370B972908
:100300002D08B900D2202C08B900D2202B08B90042
:10031000D2202A080420B800B900D22029080420DD
:10032000B800B900D2202808B900D220B5292D087C
:100330000420B800B900D2202C080420B800B9006D
:10034000D2202B080420B800B900D2202A080420AB
:10035000B800B900D22029080420B800B900D22082
:1003600028080420B800B900D22083160611831291
:1003700006150930F700F70BBB29BE2983160611B5
:10038000831206119630C100B120B901D220B90103
:10039000D220B901D220B901D220B901D220B901AD
:1003A000D22083160611831206150930F700F70BC9
:1003B000D729DA2983160611831206110530C100E8
:1003C000B1200800B901D220B901D220B901D22050
:1003D000B901D22029080420B800B900D220280889
:1003E0000420B800B900D220831606118312061526
:1003F0000930F700F70BFA29FD298316061183123D
:1004000006119630C100B120B901D220B901D22025
:10041000B901D220B901D220B901D220B901D2202C
:1004200083160611831206150930F700F70B162AFA
:10043000192A83160611831206110530C100B12056
:1004400008003808BB000A30BC0066217808B900F3
:100450003908C1000A30C200262178083802BA00E3
:10046000390EF700F030F70577083A04F800080075
:10047000B901D220B901D2202B080420B800B9005C
:10048000D2202A080420B800B900D220B901D22015
:10049000B901D22083160611831206150930F70020
:1004A000F70B502A532A8316061183120611963031
:1004B000C100B120B901D220B901D220B901D220A6
:1004C000B901D220B901D220B901D2208316061178
:1004D000831206150930F700F70B6C2A6F2A831672
:1004E0000611831206110530C100B12008002D0845
:1004F0000420B800B900D2202C080420B800B900AC
:10050000D220B901D220B901D220B901D220B9013B
:10051000D22083160611831206150930F700F70B57
:100520008F2A922A83160611831206119630C10073
:10053000B120B901D220B901D220B901D220B9012C
:10054000D220B901D220B901D2208316061183121C
:1005500006150930F700F70BAB2AAE2A83160611F1
:10056000831206110530C100B12008001A30B9000D
:10057000D2201A30B900D2201A30B900D2201A3055
:10058000B900D2201A30B900D2201A30B900D220D6
:100590008316061183120615CD2A831606118312BF
:1005A00006113230C100B120080020162008831641
:1005B00087008312071EE82A20162008831687006A
:1005C0008312071EE52AF720DC2A0130B300E92A4E
:1005D0002B2E330B832C8530BC0053207808B800B9
:1005E000BD004B217808A3008330BC00532078085D
:1005F000B800BD004B217808A2008130BC00532018
:100600007808B800BD004B217808A1002308BB0082
:100610000A30BC0066217708A9002308BB000A3015
:10062000BC0066217808A8002208BB000A30BC0084
:1006300066217708AB002208BB000A30BC006621A7
:100640007808AA002108BB000A30BC0066217708A0
:10065000AD002108BB000A30BC0066217808AC0060
:100660007B2120162008831687008312071E452B46
:10067000C62020162008831687008312071E422BEF
:10068000F720392B0230B300832CA01620088316E4
:1006900087008312871E582BC620A01620088316B9
:1006A00087008312871E562BF7204D2B0130B40094
:1006B000340BBA2B2308BB000A30BC006621770834
:1006C000A9002308BB000A30BC0066217808A800F6
:1006D000E22120172008831687008312071F7F2B33
:1006E000C620A30A20172008831687008312071F3D
:1006F0007B2BE221722B2308183C0319A301A017BE
:100700002008831687008312871F972BC620A30318
:10071000A0172008831687008312871F912BE221E0
:10072000882B2308FF3C031D972B1730A300A0162E
:100730002008831687008312871EAB2BC620A016C5
:100740002008831687008312871EA82BE2219F2B87
:100750000230B400BA2B2308B80021227808B80070
:100760008430B9007808BA0040200530C100B120BB
:100770005A2B582B3408023C031D1E2C2208BB00A8
:100780000A30BC0066217708AB002208BB000A30A3
:10079000BC0066217808AA0038222017200883169A
:1007A00087008312071FE32BC620A20A2017200808
:1007B000831687008312071FDF2B3822D62B2208CF
:1007C0003C3C0319A201A01720088316870083125E
:1007D000871FFB2BC620A203A017200883168700C3
:1007E0008312871FF52B3822EC2B2208FF3C031DB8
:1007F000FB2B3B30A200A016200883168700831233
:10080000871E0F2CC620A01620088316870083128F
:10081000871E0C2C3822032C0330B4001E2C220817
:10082000B80021227808B8008230B9007808BA00F0
:1008300040200530C100B120BE2BBA2B3408033C48
:10084000031D812C2108BB000A30BC0066217708FB
:10085000AD002108BB000A30BC0066217808AC005E
:10086000772220172008831687008312071F472C42
:10087000C620A10A20172008831687008312071FAD
:10088000432C77223A2C21083C3C0319A101A017E4
:100890002008831687008312871F5F2CC620A103C0
:1008A000A0172008831687008312871F592C7722F0
:1008B000502C2108FF3C031D5F2C3B30A100A016EB
:1008C0002008831687008312871E722CC620A0166C
:1008D0002008831687008312871E702C7722672CCE
:1008E000B401812C2108B80021227808B80080309A
:1008F000B9007808BA0040200530C100B120222C90
:100900001E2C0000E92AB6223308023C031D2A2EC1
:100910008730BC0053207808B800BD004B21780810
:10092000A4008930BC0053207808B800BD004B21DA
:100930007808A5008D30BC0053207808B800BD00B1
:100940004B217808A6008B30BC0053207808B800F3
:10095000BD004B217808A7002408BB000A30BC006A
:1009600066217708A9002408BB000A30BC00662174
:100970007808A8002508BB000A30BC00662177086B
:10098000AB002508BB000A30BC0066217808AA002D
:100990002608BB000A30BC0066217708AD00260897
:1009A000BB000A30BC0066217808AC007B21201611
:1009B0002008831687008312071EEA2CC620201603
:1009C0002008831687008312071EE82CF720DF2CEF
:1009D000B3012A2EA0162008831687008312871ED3
:1009E000FD2CC620A0162008831687008312871EC0
:1009F000FB2CF720F22C0130B400340B602D2408BE
:100A0000BB000A30BC0066217708A9002408BB009F
:100A10000A30BC0066217808A800E22120172008CF
:100A2000831687008312071F262DC620A40A2017CD
:100A30002008831687008312071F202DE221172D1F
:100A40002408203C031D262D0130A400A0172008F7
:100A5000831687008312871F3D2DC620A403A0178D
:100A60002008831687008312871F382DE2212F2D3F
:100A7000A408031D3D2D1F30A400A01620088316D6
:100A800087008312871E512DC620A01620088316CA
:100A900087008312871E4E2DE221452D0230B400BF
:100AA000602D2408B80021227808B8008630B900EB
:100AB0007808BA0040200530C100B120FF2CFD2C81
:100AC0003408023C031DC52D2508BB000A30BC00BC
:100AD00066217708AB002508BB000A30BC00662100
:100AE0007808AA003822201720088316870083126E
:100AF000071F8B2DC620A50A201720088316870004
:100B00008312071F852D38227C2D25080D3C031DDF
:100B10008B2D0130A500A0172008831687008312B3
:100B2000871FA22DC620A503A017200883168700C3
:100B30008312871F9D2D3822942DA508031DA22DF9
:100B40000C30A500A0162008831687008312871E8C
:100B5000B62DC620A0162008831687008312871E94
:100B6000B32D3822AA2D0330B400C52D2508B800B6
:100B700021227808B8008830B9007808BA004020EF
:100B80000530C100B120642D602D3408033C031DE5
:100B9000282E2608BB000A30BC0066217708AD006D
:100BA0002608BB000A30BC0066217808AC0077221A
:100BB00020172008831687008312071FEE2DC620FA
:100BC000A60A20172008831687008312071FEA2D24
:100BD0007722E12D2608643C0319A601A0172008FE
:100BE000831687008312871F062EC620A603A01730
:100BF0002008831687008312871F002E7722F72D87
:100C00002608FF3C031D062E6330A600A016200810
:100C1000831687008312871E192EC620A01620086F
:100C2000831687008312871E172E77220E2EB4019B
:100C3000282E2608B80021227808B8008C30B90088
:100C40007808BA0040200530C100B120C92DC52D5B
:100C50000000842CB6228316091089100911831212
:100C600089010800A2080319372E0030382E013000
:100C7000B800A10803193E2E00303F2E0130380580
:100C80000319502E8316061283120616C830C100AF
:100C9000B1208316061283120612C830C100B1209B
:100CA00008000130AE002E08083C031CDA2E033089
:100CB000C1002E08C200262102307802B800380890
:100CC00003178D0083168C130C1483120C08031366
:100CD0002302031DD82E0330C1002E08C200262196
:100CE00001307802B800380803178D0083168C1382
:100CF0000C1483120C0803132202031DD82E033098
:100D0000C1002E08C20026217808B8003808031751
:100D10008D0083168C130C1483120C08031321020C
:100D2000031DD82EA3080319D82EA2080319D82E04
:100D3000B0013008043C031CD82EF720831606129D
:100D400083120616C830C100B12083160612831222
:100D50000612C830C100B12083160612831206168F
:100D6000C830C100B1208316061283120612C830A3
:100D7000C100B1208316061283120616C830C100C6
:100D8000B1208316061283120612C830C100B120AA
:100D90008316061283120616C830C100B1208316CE
:100DA000061283120612C830C100B120B00A992E73
:100DB000AE0A532E08008316051083120510A630C4
:100DC000F700F70BE12E000083160514A630F7009C
:100DD000F70BE82E0000051483120800C201420838
:100DE000073C031C0B2F8316051083120510F82EE9
:100DF0000310C10C0318FE2E0510FF2E05148316D8
:100E000005101330F700F70B032F062F0514082FDA
:100E10008312C20AEF2E0800C1014108073C031CDF
:100E20002C2F8316051083120510162F8316051418
:100E30000230F700F70B1A2F000005148312051873
:100E4000232F0310242F0314C20C2730F700F70BB5
:100E5000272F2A2FC10A0D2F4208F80008008E30D4
:100E6000F7003E08F7023F08F9004008F800F917BC
:100E7000F7080319462F0310F908031D422FF8083D
:100E80000319462FF90CF80CF70B3B2FBF1F4D2F02
:100E9000F809F909F80A0319F90A8A110A16872AC2
:101000000130B300330B92280130A30020172008D1
:10101000831687008312071F2A28A017200883162B
:1010200087008312871F2A282308BB000A30BC00D0
:101030008A1166218A157708A9002308BB000A30A7
:10104000BC008A1166218A157808A8008A11E2215D
:101050008A1506282308BB000A30BC008A116621C5
:101060008A157708A9002308BB000A30BC008A1142
:1010700066218A157808A8008A11E2218A152017AE
:101080002008831687008312071F5B288A11C62059
:101090008A15A30A20172008831687008312071FCA
:1010A00055288A11E2218A154A282308093C031D84
:1010B0005B280130A300A017200883168700831245
:1010C000871F76288A11C6208A15A303A017200837
:1010D000831687008312871F71288A11E2218A15DF
:1010E0006628A308031D76280830A30020162008D0
:1010F000831687008312071E8B288A11C6208A1543
:1011000020162008831687008312071E8A282308CA
:10111000B200802892280530C1008A11B1208A15BA
:10112000062802288A11B6228A15330B672B033052
:10113000C1003208C2008A1126218A1502307802C5
:10114000B800380803178D0083168C130C14831213
:101150000C080313A3000330C1003208C2008A1137
:1011600026218A1501307802B800380803178D004F
:1011700083168C130C1483120C080313A200033083
:10118000C1003208C2008A1126218A157808B800E9
:10119000380803178D0083168C130C1483120C0867
:1011A0000313A1002308BB000A30BC008A1166218A
:1011B0008A157708A9002308BB000A30BC008A11F1
:1011C00066218A157808A8002208BB000A30BC00F6
:1011D0008A1166218A157708AB002208BB000A3005
:1011E000BC008A1166218A157808AA002108BB0074
:1011F0000A30BC008A1166218A157708AD002108E3
:10120000BB000A30BC008A1166218A157808AC0040
:101210008A117B218A1520162008831687008312E5
:10122000071E21298A11C6208A1520162008831638
:1012300087008312071E20298A11F7208A15152995
:10124000672BA0162008831687008312871E382973
:101250008A11C6208A15A0162008831687008312DB
:10126000871E36298A11F7208A152B290130B400F0
:1012700020172008831687008312071FB629A0179E
:101280002008831687008312871FB6298A11C6207B
:101290008A15A301A201A1010330C1003208C200D6
:1012A0008A1126218A1502307802B8000B08F7004F
:1012B0008B13380803178D008C0183168C130C15C3
:1012C00055308D00AA308D008C148C1865290C11B6
:1012D0007708831203138B040530C1008A11B120F3
:1012E0008A150330C1003208C2008A1126218A15EE
:1012F00001307802B8000B08F7008B133808031789
:101300008D008C0183168C130C1555308D00AA307E
:101310008D008C148C188A290C1177088312031302
:101320008B040530C1008A11B1208A150330C10039
:101330003208C2008A1126218A157808B8000B08E5
:10134000F7008B13380803178D008C0183168C135C
:101350000C1555308D00AA308D008C148C18AE29D8
:101360000C117708831203138B040028340B452AD1
:101370002308BB000A30BC008A1166218A15770851
:10138000A9002308BB000A30BC008A1166218A1517
:101390007808A8008A11E2218A15201720088316F0
:1013A00087008312071FE7298A11C6208A15A30A1E
:1013B00020172008831687008312071FE3298A114C
:1013C000E2218A15D8292308183C0319A301A01784
:1013D0002008831687008312871F032A8A11C620DC
:1013E0008A15A303A0172008831687008312871F7E
:1013F000FD298A11E2218A15F2292308FF3C031DE9
:10140000032A1730A300A016200883168700831232
:10141000871E1B2A8A11C6208A15A016200883164B
:1014200087008312871E182A8A11E2218A150D2A45
:101430000230B400452A0330C1003208C2008A11CC
:1014400026218A1502307802B8000B08F7008B13AA
:10145000380803178D000313230803178C00831625
:101460008C130C1555308D00AA308D008C148C18FF
:10147000372A0C117708831203138B040530C1003F
:101480008A11B1208A15B829B6293408023C031DF7
:10149000D62A2208BB000A30BC008A1166218A15B0
:1014A0007708AB002208BB000A30BC008A11662115
:1014B0008A157808AA008A1138228A152017200870
:1014C000831687008312071F782A8A11C6208A157F
:1014D000A20A20172008831687008312071F742A88
:1014E0008A1138228A15692A22083C3C0319A20174
:1014F000A0172008831687008312871F942A8A1159
:10150000C6208A15A203A01720088316870083121D
:10151000871F8E2A8A1138228A15832A2208FF3CC7
:10152000031D942A3B30A200A016200883168700D2
:101530008312871EAC2A8A11C6208A15A01620089D
:10154000831687008312871EA92A8A1138228A15DA
:101550009E2A0330B400D62A0330C1003208C200EC
:101560008A1126218A1501307802B8000B08F7008D
:101570008B13380803178D000313220803178C0000
:1015800083168C130C1555308D00AA308D008C14E9
:101590008C18C82A0C117708831203138B040530AA
:1015A000C1008A11B1208A15492A452A3408033C12
:1015B000031D652B2108BB000A30BC008A1166217F
:1015C0008A157708AD002108BB000A30BC008A11DB
:1015D00066218A157808AC008A1177228A152017AF
:1015E0002008831687008312071F092B8A11C62043
:1015F0008A15A10A20172008831687008312071F67
:10160000052B8A1177228A15FA2A21083C3C0319F6
:10161000A101A0172008831687008312871F252B9E
:101620008A11C6208A15A103A017200883168700F7
:101630008312871F1F2B8A1177228A15142B2108EA
:10164000FF3C031D252B3B30A100A016200883166C
:1016500087008312871E3C2B8A11C6208A15A0168C
:101660002008831687008312871E3A2B8A1177225F
:101670008A152F2BB401672B0330C1003208C2003A
:101680008A1126218A157808B8000B08F7008B13F9
:10169000380803178D000313210803178C008316E5
:1016A0008C130C1555308D00AA308D008C148C18BD
:1016B000572B0C117708831203138B040530C100DC
:1016C0008A11B1208A15DA2AD62A000095288A11B3
:1016D000B6228A150800B8018A11DB268A15CC309B
:1016E000C1008A11EE268A154430C1008A11EE2607
:1016F0008A15B808031D822B8A110C278A157808D1
:10170000B800792B8A11DB268A15CC30C1008A11EA
:10171000EE268A15BE30C1008A11EE268A158A117E
:101720000C278A157808B9008A110C278A157808C1
:10173000BA003A08BC003908BB003C08C2003B08AC
:10174000C1008E30F7004208F8004108F900FA01A4
:10175000C21FAF2BF809F909F90A0319F80AF808AA
:10176000031DBC2B7908F800F9010830F702F808CE
:10177000031DBC2BF701C52B0310F81BC32BF90D60
:10178000F80DF703BC2BC21FF8137A08C4007908C0
:10179000C3007808C2007708C1004408C8004308A5
:1017A000C7004208C6004108C500CC01CB01CA01F0
:1017B0008330C900450803199F2CD100490803193B
:1017C0009F2CD102031CE92B7F30D10703189F2CDB
:1017D000EF2B8130D102031C9F2C03199F2C510841
:1017E000F700F801F901FA01D0014608CF00CF1740
:1017F0004708CE004808CD001930D1004C08CD0272
:101800000318122C0130CE020318122CCF02031839
:10181000122CD0020318122CD00ACF0ACE0A4C0880
:10182000CD07442C4B08CE0203182D2C0130CF02DB
:1018300003182D2CD00203182D2CD00ACF0A4B08E8
:10184000CE074C08CD07031C442CCE0A031D442CA4
:10185000CF0A031D442CD00A442C4A088038CF02FA
:101860000318432C0130D0020318432CD00A4A0835
:101870008038CF074B08CE07031C212CCF0A031D4D
:10188000212CD00A212C7A14D10B472C522C031076
:10189000CD0DCE0DCF0DD00D0310FA0DF90DF80DB5
:1018A000D20DFE2B521C5A2C0310F80CF90CFA0C1A
:1018B000D20C5D2CF70303199F2CD21B862C03102E
:1018C000CD0DCE0DCF0DD00D4C08CD020318722CCE
:1018D0000130CE020318722CCF020318722CD002F2
:1018E000031C952C4B08CE0203187D2C0130CF022F
:1018F00003187D2CD002031C952C4A088038CF0297
:101900000318862C0130D002031C952CFA0A031D03
:10191000952CF90A031D952CF80A031D952CF70A3E
:1019200003199F2CF80CF90CFA0C4608D1004A0850
:10193000D106D11F9D2CF817A32CF813A32CF70167
:10194000F801F901FA017A08C0007908BF007808A7
:10195000BE007708BD00C830C1008A11B1208A15C9
:101960003D08F7003E08F8003F08F9004008FA007B
:101970008A110A16552A80308318C306C801C90186
:101980003F08C7004308C7063E080319AB2DC60031
:10199000F70042080319B42DC6020319502D031C89
:1019A0000E2D4308CC00CC174408CB004508CA00D4
:1019B000C9010310CC0CCB0CCA0CC90CC60BD82C1B
:1019C000C71FE52C4814C82D481046104816413052
:1019D00084008313DD2D4812C71BF82C461C032DF1
:1019E000CC0CCB0CCA0CC90CF70A0319C32D032D60
:1019F000CC1B062D0310C90DCA0DCB0DCC0DF70362
:101A00000319C32DF82C4817702D48133F08C70041
:101A1000C71F0C2DCC17BC2DCC13BC2D4208C60003
:101A2000F7003E08C6023F08CC00CC174008CB00A8
:101A30004108CA00C9010310CC0CCB0CCA0CC90C5C
:101A4000C60B1A2DC71F272DC814C82DC810461045
:101A5000C816453084008313DD2DC812C71B3A2DEC
:101A6000461C452DCC0CCB0CCA0CC90CF70A03192B
:101A7000C32D452DCC1B482D0310C90DCA0DCB0D10
:101A8000CC0DF7030319C32D3A2DC817702DC813B9
:101A90004308C700C71F4E2DCC17BC2DCC13BC2D3F
:101AA0004308CC00CC174408CB004508CA00C71F28
:101AB0005D2DCC134815C82D4811C9014610413081
:101AC00084008313DD2DC71B862D3F08C700461CED
:101AD000702DCC0CCB0CCA0CC90CF70A0319C32D02
:101AE000C91F812DCA0A031D812DCB0A031D812D1B
:101AF000CC0A031D812DCC0CCB0CCA0CF70A0319A0
:101B0000C32D481B052DC81B472DA52D8030CC06A5
:101B1000CC1F8E2DC82D4308C7009B2D3F08C70042
:101B2000CC08031D9B2DCB08031D9B2DCA08031D4C
:101B30009B2DF701BC2DCC1BA52D0310C90DCA0D83
:101B4000CB0DCC0DF70B9B2DC32DC71FA92DCC178B
:101B5000BC2DCC13BC2D4208F7004308CC00440830
:101B6000CB004508CA00BC2D3E08F7003F08CC005A
:101B70004008CB004108CA004C08F8004B08F900A7
:101B80004A08FA00FB2DF701F801F901FA01FB2DD3
:101B9000C901CA09CB09CC09C909C90A031DD62D37
:101BA000CA0A031DD62DCB0A0319CC0A4818E42C07
:101BB000C818262D48195C2D8B2D0008CA07031C58
:101BC000E72DCB0A031DE72DCC0A03194614840325
:101BD0000008CB07031CEF2DCC0A0319461484031D
:101BE0000008801F803ACC0703184614481AEB2CD3
:0C1BF000C81A2D2D632D8A110A16762AC2
:10200000FF30A0008030B100B301B401B7018316E6
:102010001F149F141F159F1107309C0083131F303E
:10202000830585018312850183168601831286014B
:102030000030A00083168701831287018316880170
:1020400083128801831609108910091183128901EE
:102050000A128B280A161430C1000A12B1200A167F
:10206000AF012F08BD3C031C412920162008831610
:1020700087008312071E42280A12C6200A160A1277
:10208000D5220A1620172008831687008312071FFF
:102090005828A0172008831687008312871F582806
:1020A0000A12C6200A160A128A1500200A168A1178
:1020B0008530BC000A1253200A167808B800BD000B
:1020C0000A124B210A167808A3008330BC000A12BA
:1020D00053200A167808B800BD000A124B210A16D0
:1020E0007808A2008130BC000A1253200A16780832
:1020F000B800BD000A124B210A167808A1000A1286
:1021000032260A160A1251260A162308BB000A3084
:10211000BC000A1266210A167708A9002308BB0032
:102120000A30BC000A1266210A167808A8002208A4
:10213000BB000A30BC000A1266210A167708AB0001
:102140002208BB000A30BC000A1266210A16780871
:10215000AA002108BB000A30BC000A1266210A1638
:102160007708AD002108BB000A30BC000A126621C6
:102170000A167808AC0021080139013C031DF72834
:102180002D080A1212200A16B800B9000A12D2202D
:102190000A162C080A1212200A16B800B9000A12F0
:1021A000D2200A162B080A1212200A16B800B9000B
:1021B0000A12D2200A162A080A1212200A16B80099
:1021C000B9000A12D2200A1629080A1212200A1689
:1021D000B800B9000A12D2200A1628080A121220E2
:1021E0000A16B800B9000A12D2200A162D292D08A5
:1021F0000A1204200A16B800B9000A12D2200A16E0
:102200002C080A1204200A16B800B9000A12D220BB
:102210000A162B080A1204200A16B800B9000A127E
:10222000D2200A162A080A1204200A16B800B90099
:102230000A12D2200A1629080A1204200A16B80027
:10224000B9000A12D2200A1628080A1204200A1617
:10225000B800B9000A12D2200A168316061183129A
:1022600006150930F700F70B3329362983160611B6
:10227000831206110630C1000A12B1200A16AF0AF5
:1022800031280A12B6220A16AF012F08BD3C031CE2
:102290004D2A20162008831687008312071E562910
:1022A0000A12C6200A160A12D5220A16201720087A
:1022B000831687008312071F6C29A0172008831636
:1022C00087008312871F6C290A12C6200A160A1279
:1022D0008A1500200A168A118530BC000A12532084
:1022E0000A167808B800BD000A124B210A167808B1
:1022F000A3008330BC000A1253200A167808B800E5
:10230000BD000A124B210A167808A2008130BC00D9
:102310000A1253200A167808B800BD000A124B2191
:102320000A167808A1000A1232260A160A12512645
:102330000A168730BC000A1253200A167808B80023
:10234000BD000A124B210A167808A4008930BC008F
:102350000A1253200A167808B800BD000A124B2151
:102360000A167808A5008D30BC000A1253200A1600
:102370007808B800BD000A124B210A167808A6009A
:102380008B30BC000A1253200A167808B800BD0032
:102390000A124B210A167808A7002408BB000A304D
:1023A000BC000A1266210A167808A8002408BB009F
:1023B0000A30BC000A1266210A167708A90025080F
:1023C000BB000A30BC000A1266210A167808AA006F
:1023D0002508BB000A30BC000A1266210A167708DD
:1023E000AB002608BB000A30BC000A1266210A16A0
:1023F0007808AC002608BB000A30BC000A1266212F
:102400000A167708AD002D080A1212200A16B80025
:10241000B9000A12D2200A162C080A1212200A1633
:10242000B800B9000A12D2200A162B080A1212208C
:102430000A16B800B9000A12D2200A162A080A128F
:1024400012200A16B800B9000A12D2200A1629086A
:102450000A1212200A16B800B9000A12D2200A166F
:1024600028080A1212200A16B800B9000A12D2204F
:102470000A1683160611831206150930F700F70BAA
:102480003F2A422A83160611831206110630C10024
:102490000A12B1200A16AF0A45290A12B6220A16F4
:1024A0000130B7000A128A156B2B0A168A117A08B6
:1024B000BB007908BA007808B9007708B800BD01F8
:1024C0000408BC003D10831B3D1483103B08C10071
:1024D0003A08C0003908BF003808BE00C501C40171
:1024E000C3018030C2000A128A15BB2C0A168A1159
:1024F0003C08840083133D1883177A08C1007908CB
:10250000C0007808BF007708BE000A122F2F0A16F5
:102510007908B6007808B500AF012F08BD3C031C50
:10252000332B20162008831687008312071E9E2A4D
:102530000A12C6200A160A12D5220A1620172008E7
:10254000831687008312071FB42AA017200883165A
:1025500087008312871FB42A0A12C6200A160A129D
:102560008A1500200A168A118530BC000A125320F1
:102570000A167808B800BD000A124B210A1678081E
:10258000A3008330BC000A1253200A167808B80052
:10259000BD000A124B210A167808A2008130BC0047
:1025A0000A1253200A167808B800BD000A124B21FF
:1025B0000A167808A1000A1232260A160A125126B3
:1025C0000A16AD01B630AC000F30AB003508BB00C9
:1025D0000A30BC000A1266210A167808A9003508DC
:1025E000BB000A30BC000A1266210A167708AA004E
:1025F000A8012D08B9000A12D2200A162C08B90029
:102600000A12D2200A162B08B9000A12D2200A1682
:102610002A080A1204200A16B800B9000A12D220A9
:102620000A1629080A1204200A16B800B9000A126C
:10263000D2200A162808B9000A12D2200A168316D8
:102640000611831206150930F700F70B252B282BEE
:1026500083160611831206110630C1000A12B1203A
:102660000A16AF0A8D2AB7010A12B6220A163028B6
:02267000630005
:02400E00713F00
:00000001FF
;PIC16F877A
;CRC=1E7F  CREATED="07-Aðu-19 14:57"
