:1000000002308A008D2A00000A108A100A11820725
:100010004034F934A434B034093492348234F8349E
:10002000803490341C344634A01320088316870093
:1000300083128713A630F700F70B1C280000A017C7
:10004000200883168700A630F700F70B252800004C
:100050008312A01720088316870083120800B101BD
:100060003108073C031C5428A0132008831687007E
:10007000831287133B280310B00C03184128871301
:1000800042288717A0132008831687001330F70033
:10009000F70B48284B288312A017200883168700E7
:1000A00051288312B10A30280800B0013008073CFB
:1000B000031C7D28A0132008831687008312871352
:1000C0006128A0172008831687000230F700F70B7D
:1000D000672800008312A017200883168700831268
:1000E000871B7428031075280314B10C2730F70000
:1000F000F70B78287B28B00A56283108F80008004A
:100100003030840083130008031994280130F8006C
:10011000F701F70B8928F80B88284A30F700F70B0E
:100120008F289228800B86280800A7011420CC3045
:10013000B0002F204430B0002F20A708031DA428B2
:1001400055207808A7009D281420CC30B0002F201F
:10015000BE30B0002F2055207808A8005520780820
:10016000A9002908AB002808AA002B08B1002A081A
:10017000B0008E30F7003108F8003008F900FA01BD
:10018000B11FC728F809F909F90A0319F80AF8088C
:10019000031DD4287908F800F9010830F702F8089F
:1001A000031DD428F701DD280310F81BDB28F90D07
:1001B000F80DF703D428B11FF8137A08B3007908B3
:1001C000B2007808B1007708B0003308B7003208F1
:1001D000B6003108B5003008B400BB01BA01B9015E
:1001E0008330B80034080319B729C0003808031950
:1001F000B729C002031C01297F30C0070318B729A3
:1002000007298130C002031CB7290319B729400808
:10021000F700F801F901FA01BF013508BE00BE1769
:100220003608BD003708BC001930C0003B08BC02CE
:1002300003182A290130BD0203182A29BE02031817
:100240002A29BF0203182A29BF0ABE0ABD0A3B0891
:10025000BC075C293A08BD02031845290130BE02DB
:1002600003184529BF0203184529BF0ABE0A3A08E8
:10027000BD073B08BC07031C5C29BD0A031D5C29A4
:10028000BE0A031D5C29BF0A5C2939088038BE02FA
:1002900003185B290130BF0203185B29BF0A390824
:1002A0008038BE073A08BD07031C3929BE0A031D62
:1002B0003929BF0A39297A14C00B5F296A2903102A
:1002C000BC0DBD0DBE0DBF0D0310FA0DF90DF80DDF
:1002D000C10D1629411C72290310F80CF90CFA0CF7
:1002E000C10C7529F7030319B729C11B9E290310F7
:1002F000BC0DBD0DBE0DBF0D3B08BC0203188A2905
:100300000130BD0203188A29BE0203188A29BF02E0
:10031000031CAD293A08BD02031895290130BE021D
:1003200003189529BF02031CAD2939088038BE0285
:1003300003189E290130BF02031CAD29FA0A031DD0
:10034000AD29F90A031DAD29F80A031DAD29F70AE5
:100350000319B729F80CF90CFA0C3508C000390854
:10036000C006C01FB529F817BB29F813BB29F70130
:10037000F801F901FA017A08AF007908AE007808AF
:10038000AD007708AC00C830B00080202C08F70022
:100390002D08F8002E08F9002F08FA008A110A1219
:1003A000AD2A8E30F7002708F7022808F90029083F
:1003B000F800F917F7080319E8290310F908031DD5
:1003C000E429F8080319E829F90CF80CF70BDD29E2
:1003D000A81FEF29F809F909F80A0319F90A8A117F
:1003E0000A12B62AF801F901F701FA012A08031DD9
:1003F000FC2929080319162A1030AB000310A70D99
:10040000A80DF70DFA0D2A087A02031D092A2908FA
:100410007702031C122A2908F702031CFA032A0890
:10042000FA020314F80DF90DAB0BFE29080024089D
:10043000A8002308A700AA010A30A900F221770822
:10044000A5002408A8002308A700AA010A30A900D3
:10045000F2217808A6008A110A12BB2A83168801A5
:10046000831288016430B000802083168801013037
:100470008312880083168601B630831286006430AA
:10048000B000802083168801023083128800831612
:100490008601B630831286006430B0008020831657
:1004A000880104308312880083168601B6308312D7
:1004B00086006430B00080208316880108308312E3
:1004C000880083168601B630831286006430B0003F
:1004D00080208316880110308312880083168601DD
:1004E000B630831286006430B00080208316880105
:1004F00020308312880083168601B630831286006E
:100500006430B00080208316880183128801643033
:10051000B00080208A110A12BC2AFF30A000831686
:100520001F149F141F159F1107309C0083131F3049
:1005300083050030860088008501831285018316BB
:10054000860183128601A00083168701831287012A
:10055000831688018312880195287A08AA007908F1
:10056000A9007808A8007708A700D1297908A40075
:100570007808A300172A2E2AA201A101A208031DB0
:100580000F2B2108273C031C0F2B83168810831286
:10059000881426080420A7008316860183122708E2
:1005A00086001E30B00080208316881083128810C9
:1005B000831608118312081525080420A700831646
:1005C00086018312270886001E30B0008020831623
:1005D0000811831208118316881183128815831657
:1005E00086011C30831286001E30B00080208316E6
:1005F0008811831288118316081283120816831635
:1006000086014630831286001E30B000802083169B
:10061000081283120812A10A0319A20ABE2AAC2AE0
:02062000630075
:02400E00393F38
:00000001FF
;PIC16F877A
;CRC=CD6F  CREATED="25-Tem-19 23:18"
