:1000000000308A006E280000FF00030E8301A1006B
:100010007F08A0000A08A7008A01A00E0408A20019
:100020007708A3007808A4007908A5007A08A6003C
:10003000831383120B1E1E288B1844282208840069
:100040002308F7002408F8002508F9002608FA001C
:1000500027088A00210E8300FF0E7F0E09002A3038
:10006000840083130008031943280130F800F701C6
:10007000F70B3828F80B37284A30F700F70B3E28E3
:100080004128800B3528080086140430A900FA3076
:10009000AA002F20A90B472886100C30A900FA309F
:1000A000AA002F20A90B4F28A8012808093C031CEF
:1000B0006B2886140230A900FA30AA002F20A90B61
:1000C0005C2886100230A900FA30AA002F20A90B64
:1000D0006428A80A55288B108A111E2807309F0013
:1000E00083131F3083050130831686008312860137
:1000F0008316011383120B16C0308B047E28630015
:02400E00213F50
:00000001FF
;PIC16F628A
;CRC=EC77  CREATED="30-Tem-18 23:29"
