:100000000B308A00012B00000A108A100A118207A7
:10001000403479342434303419341234023478348E
:10002000003410343D308400831300080319252860
:100030000630F800F701F70B1B28F80B1A287B3065
:10004000F700F70B2128800B18280800C40144088A
:10005000073C031C45280310C30C03183128071163
:100060003228071520112008831687008312A0105C
:1000700020088316870083128714A0102008831697
:10008000870083128710C40A272808002010200840
:1000900083168700831207143D08C30026203E08FC
:1000A000C300262020102008831687008312071023
:1000B00008002010200883168700831207144008C8
:1000C000C30026202015200883168700672868288B
:1000D00000008312C1014108073C031C942820152D
:1000E00020088316870083120719782803107928BF
:1000F0000314C20CA01020088316870083128714F3
:100100000230F700F70B822885280000A010200895
:1001100083168700831287100230F700F70B8E28B2
:1001200091280000C10A6B28201020088316870040
:10013000831207104208F8000800201020088316D8
:100140008700831207100230F700F70BA528A828B4
:100150000000A010200883168700831287108E30BD
:10016000BD00BE0146209030BD00A430BE00462038
:100170008130C00059207808BC003C088039031940
:10018000C5288030BD00BE0146208A150A12382BD2
:1001900083168801831288010230BC009630BD00AE
:1001A0001220BC0BCE2883168801013083128800F0
:1001B00083168601B630831286006430BD0012209B
:1001C0008316880102308312880083168601B630B8
:1001D000831286006430BD0012208316880104302B
:1001E0008312880083168601B6308312860064303D
:1001F000BD00122083168801083083128800831600
:100200008601B630831286006430BD00122083164A
:10021000880110308312880083168601B63083125D
:1002200086006430BD0012208316880120308312BE
:10023000880083168601B630831286006430BD00C4
:10024000122083168801831288010230BC00963088
:10025000BD001220BC0B272908008316880101303D
:100260008312880028080420BC00831686018312AC
:100270003C0886000230BD0012208316880102303F
:100280008312880029080420BC008316860183128B
:100290003C0886000230BD0012208316880104301D
:1002A00083128800831686019C30831286000230F8
:1002B000BD0012208316880108308312880083163F
:1002C0008601C630831286000230BD0012208316DC
:1002D0008801831288010800831688010130831287
:1002E000880028080420BC008316860183123C087D
:1002F00086000230BD00122083168801023083126E
:10030000880029080420BC008316860183123C085B
:1003100086000230BD00122083168801043083124B
:1003200088002A080420BC008316860183123C083A
:1003300086000230BD001220831688010830831227
:1003400088002B080420BC008316860183123C0819
:1003500086000230BD0012208316880110308312FF
:1003600088002C080420BC008316860183123C08F8
:1003700086000230BD0012208316880120308312CF
:1003800088002D080420BC008316860183123C08D7
:1003900086000230BD0012200800F701F801450870
:1003A00003104618F707F70CF80CC618F707F70CF8
:1003B000F80C4619F707F70CF80CC619F707F70CF5
:1003C000F80C461AF707F70CF80CC61AF707F70CE3
:1003D000F80C461BF707F70CF80CC61BF707F70CD1
:1003E000F80C08004108C200420EF7000F30F70574
:1003F0007708C400C5000A30C600CD217808C100C6
:10040000420EF700F030F7057708F70E0F30F705CA
:100410007708C1074108F80008004008F8013F02CA
:100420000318152A3F08F700212AF7010830C100F8
:10043000BF0DF70D400877020318F700F80DC10B48
:10044000182A080083168801831288010230BC0034
:100450009630BD001220BC0B282A6C216C216C2127
:100460006C216C21080083168801013083128800FA
:1004700028080420BC008316860183123C088600ED
:100480000230BD00122083168801023083128800DA
:1004900029080420BC008316860183123C088600CC
:1004A0000230BD00122008003C08BF000A30C00026
:1004B0000D227808BD003D08C5000A30C600CD21D8
:1004C00078083C02BE003D0EF700F030F7057708D3
:1004D0003E04F80008008316880104308312880067
:1004E0002A080420BC008316860183123C0886007B
:1004F0000230BD0012208316880108308312880064
:100500002B080420BC008316860183123C08860059
:100510000230BD00122008008316880110308312BB
:1005200088002C080420BC008316860183123C0836
:1005300086000230BD00122083168801203083120D
:1005400088002D080420BC008316860183123C0815
:1005500086000230BD0012200800201620088316F5
:1005600087008312071ECC2A2016200883168700D6
:100570008312071EC92A3B0BBF2A2D21C02A6C21DA
:1005800083168510831285108316051183120511B9
:10059000B42A0130AF00CD2A092E2F0B652C83160B
:1005A0000910891009110130831289008530C000BB
:1005B00059207808BC00C100F2217808A3008330DC
:1005C000C00059207808BC00C100F2217808A200C0
:1005D0008130C00059207808BC00C100F2217808A1
:1005E000A1002308BF000A30C0000D227708A9002F
:1005F0002308BF000A30C0000D227808A800220896
:10060000BF000A30C0000D227708AB002208BF00EF
:100610000A30C0000D227808AA002108BF000A3065
:10062000C0000D227708AD002108BF000A30C000CD
:100630000D227808AC00222220162008831687009D
:100640008312071E2F2B2016200883168700831283
:10065000071E2C2B6C21232B0230AF00652CA0161B
:100660002008831687008312871E412BA0162008BE
:10067000831687008312871E3F2B6C21362B013097
:10068000B000300BA02B2308BF000A30C0000D22A1
:100690007708A9002308BF000A30C0000D2278089F
:1006A000A800332220172008831687008312071F13
:1006B000672BA30A20172008831687008312071FC1
:1006C000632B33225A2B2308183C0319A301A017CC
:1006D0002008831687008312871F7E2BA303A01791
:1006E0002008831687008312871F782B33226F2BF5
:1006F0002308FF3C031D7E2B1730A300A016200803
:10070000831687008312871E912BA016200883165C
:1007100087008312871E8E2B3322852B0230B00078
:10072000A02B2308BC0054227808BC008430BD00F4
:100730007808BE0046200530BD001220432B412B17
:100740003008023C031D012C2208BF000A30C00003
:100750000D227708AB002208BF000A30C0000D222E
:100760007808AA006B2220172008831687008312BE
:10077000071FC82BA20A20172008831687008312A0
:10078000071FC42B6B22BB2B22083C3C0319A20180
:10079000A0172008831687008312871FDF2BA20370
:1007A000A0172008831687008312871FD92B6B227E
:1007B000D02B2208FF3C031DDF2B3B30A200A016EC
:1007C0002008831687008312871EF22BA0162008AC
:1007D000831687008312871EEF2B6B22E62B0330D4
:1007E000B000012C2208BC0054227808BC008230E2
:1007F000BD007808BE0046200530BD001220A42BA5
:10080000A02B3008033C031D612C2108BF000A30D7
:10081000C0000D227708AD002108BF000A30C000DB
:100820000D227808AC008C22201720088316870040
:100830008312071F292CA10A20172008831687007E
:100840008312071F252C8C221C2C21083C3C0319E9
:10085000A101A0172008831687008312871F402C50
:10086000A103A0172008831687008312871F3A2C44
:100870008C22312C2108FF3C031D402C3B30A10071
:10088000A0162008831687008312871E522CA016FC
:100890002008831687008312871E502C8C22472C39
:1008A000B001612C2108BC0054227808BC008030C3
:1008B000BD007808BE0046200530BD001220052C82
:1008C000012C622C632C0000CD2A2F08023C031D52
:1008D000092E83160910891009110230831289002C
:1008E0008730C00059207808BC00C100F221780888
:1008F000A4008930C00059207808BC00C100F22152
:100900007808A5008D30C00059207808BC00C100CF
:10091000F2217808A6008B30C00059207808BC006E
:10092000C100F2217808A7002408BF000A30C000E7
:100930000D227708A9002408BF000A30C0000D224C
:100940007808A8002508BF000A30C0000D227708EB
:10095000AB002508BF000A30C0000D227808AA00AD
:100960002608BF000A30C0000D227708AD00260817
:10097000BF000A30C0000D227808AC0022222016E9
:100980002008831687008312071ED12C201620080A
:10099000831687008312071ECF2C6C21C62CAF0153
:1009A000092EA0162008831687008312871EE32CC9
:1009B000A0162008831687008312871EE12C6C2165
:1009C000D82C0130B000300B432D2408BF000A3072
:1009D000C0000D227708A9002408BF000A30C0001B
:1009E0000D227808A80033222017200883168700DC
:1009F0008312071F0B2DA40A2017200883168700D7
:100A00008312071F052D3322FC2C2408203C031DD4
:100A10000B2D0130A400A017200883168700831235
:100A2000871F212DA403A017200883168700831297
:100A3000871F1C2D3322132DA408031D212D1F30C9
:100A4000A400A0162008831687008312871E342D69
:100A5000A0162008831687008312871E312D3322AB
:100A6000282D0230B000432D2408BC005422780801
:100A7000BC008630BD007808BE0046200530BD00B1
:100A80001220E52CE32C3008023C031DA52D25087F
:100A9000BF000A30C0000D227708AB002508BF0058
:100AA0000A30C0000D227808AA006B222017200807
:100AB000831687008312071F6D2DA50A20172008B3
:100AC000831687008312071F672D6B225E2D250872
:100AD0000D3C031D6D2D0130A500A01720088316C5
:100AE00087008312871F832DA503A0172008831674
:100AF00087008312871F7E2D6B22752DA508031D8D
:100B0000832D0C30A500A0162008831687008312C1
:100B1000871E962DA0162008831687008312871E35
:100B2000932D6B228A2D0330B000A52D2508BC0023
:100B300054227808BC008830BD007808BE004620EA
:100B40000530BD001220472D432D3008033C031D06
:100B5000052E2608BF000A30C0000D227708AD0020
:100B60002608BF000A30C0000D227808AC008C2295
:100B700020172008831687008312071FCD2DA60A91
:100B800020172008831687008312071FC92D8C2287
:100B9000C02D2608643C0319A601A017200883165F
:100BA00087008312871FE42DA603A0172008831651
:100BB00087008312871FDE2D8C22D52D2608FF3C4F
:100BC000031DE42D6330A600A016200883168700BD
:100BD0008312871EF62DA016200883168700831225
:100BE000871EF42D8C22EB2DB001052E2608BC00AB
:100BF00054227808BC008C30BD007808BE00462026
:100C00000530BD001220A92DA52D062E072E0000AF
:100C1000652C8316091089100911831289010800B7
:100C2000AA080319152E0030162E0130BC00AB089F
:100C300003191C2E00301D2E01303C050319412ED6
:100C4000A011200883168700831287156430BD0029
:100C50001220A011200883168700831287116430A8
:100C6000BD001220A011200883168700831287156B
:100C70006430BD001220A011200883168700831263
:100C800087118A150A12C92B8E30F7005908F8000F
:100C90005808F900FA01F808031D582E7908F800E1
:100CA000F9010830F702F808031D582EF701602EED
:100CB0000310F81B5F2EF90DF80DF703582EF813EB
:100CC000080054080319D12EDC0058080319D12E4E
:100CD000DC070318722E7F30DC02031CD12E0319AF
:100CE000D12E762E8130DC070318D12E5C08F70058
:100CF000F801F901FA015508E000E0175608DF0095
:100D00005708DE001830DC00DD015E1C9F2E5B08FA
:100D1000FA07031C912EF90A031D912EF80A0319F4
:100D2000DD175A08F907031C982EF80A0319DD1776
:100D30005908D600D6175608F8070318DD17DD0D39
:100D4000F80CF90CFA0CE00CDF0CDE0C0310DC0BD9
:100D5000842E0130F7070318D12EF81BB62EE00DB4
:100D6000FA0DF90DF80DF7030319D12EE01FC72E68
:100D7000FA0A031DC72EF90A031DC72EF80A031D20
:100D8000C72EF80CF90CFA0CF70A0319D12E5508E6
:100D9000DD005908DD06DD1FCF2EF817D52EF8131C
:100DA000D52EF701F801F901FA0108003C080319F2
:100DB0009B2FC800400803199B2FC802031CE52E77
:100DC0007F30C80703189B2FEB2E8130C802031C0D
:100DD0009B2F03199B2F4808F700F801F901FA012E
:100DE000C7013D08C600C6173E08C5003F08C4003D
:100DF0001930C8004308C40203180E2F0130C50281
:100E000003180E2FC60203180E2FC70203180E2F49
:100E1000C70AC60AC50A4308C407402F4208C502CC
:100E20000318292F0130C6020318292FC7020318FF
:100E3000292FC70AC60A4208C5074308C407031C6E
:100E4000402FC50A031D402FC60A031D402FC70AA5
:100E5000402F41088038C60203183F2F0130C702D7
:100E600003183F2FC70A41088038C6074208C50744
:100E7000031C1D2FC60A031D1D2FC70A1D2F7A1420
:100E8000C80B432F4E2F0310C40DC50DC60DC70D43
:100E90000310FA0DF90DF80DC90DFA2E491C562F45
:100EA0000310F80CF90CFA0CC90C592FF7030319AD
:100EB0009B2FC91B822F0310C40DC50DC60DC70D76
:100EC0004308C40203186E2F0130C50203186E2FA9
:100ED000C60203186E2FC702031C912F4208C502D9
:100EE0000318792F0130C6020318792FC702031C9B
:100EF000912F41088038C6020318822F0130C702A3
:100F0000031C912FFA0A031D912FF90A031D912F3B
:100F1000F80A031D912FF70A03199B2FF80CF90CFF
:100F2000FA0C3D08C8004108C806C81F992FF817D9
:100F30009F2FF8139F2FF701F801F901FA0108001C
:100F40005508DC005908DC06DC1FAB2F0311031029
:100F5000D51B0314DE2F5508DC005808DD005408AB
:100F6000DD020319B92FDC1FDE2F0308013A8300CD
:100F7000DE2F5908DD005508DD020319C52FDC1FDF
:100F8000DE2F0308013A8300DE2F5A08DD005608E1
:100F9000DD020319D12FDC1FDE2F0308013A830085
:100FA000DE2F5B08DD005708DD020319DD2FDC1F93
:100FB000DE2F0308013A8300DE2F031008008E3075
:100FC000F7005408F7025508F9005608F800F91719
:100FD000F7080319F62F0310F908031DF22FF8087C
:100FE0000319F62FF90CF80CF70BEB2FD51FFD2F7B
:0C0FF000F809F909F80A0319F90A0800C9
:1010000080308318DD06E201E3015908E1005D0844
:10101000E10658080319F028E000F7005C080319FE
:10102000F928E00203199528031C53285D08E600FF
:10103000E6175E08E5005F08E400E3010310E60C34
:10104000E50CE40CE30CE00B1D28E11F2A286214D8
:101050000D296210601062165B3084008313222910
:101060006212E11B3D28601C4828E60CE50CE40CEC
:10107000E30CF70A031908294828E61B4B2803103C
:10108000E30DE40DE50DE60DF703031908293D28EE
:101090006217B52862135908E100E11F5128E617CD
:1010A0000129E61301295C08E000F7005808E00276
:1010B0005908E600E6175A08E5005B08E400E3017A
:1010C0000310E60CE50CE40CE30CE00B5F28E11FD9
:1010D0006C28E2140D29E2106010E2165F308400E3
:1010E00083132229E212E11B7F28601C8A28E60C68
:1010F000E50CE40CE30CF70A031908298A28E61B1F
:101100008D280310E30DE40DE50DE60DF70303193B
:1011100008297F28E217B528E2135D08E100E11FE6
:101120009328E6170129E61301295D08E600E61772
:101130005E08E5005F08E400E11FA228E6136215DF
:101140000D296211E30160105B30840083132229B2
:10115000E11BCB285908E100601CB528E60CE50C22
:10116000E40CE30CF70A03190829E31FC628E40A74
:10117000031DC628E50A031DC628E60A031DC62866
:10118000E60CE50CE40CF70A03190829621B4A284F
:10119000E21B8C28EA288030E606E61FD3280D29BA
:1011A0005D08E100E0285908E100E608031DE02899
:1011B000E508031DE028E408031DE028F7010129E4
:1011C000E61BEA280310E30DE40DE50DE60DF70B31
:1011D000E0280829E11FEE28E6170129E613012976
:1011E0005C08F7005D08E6005E08E5005F08E400C3
:1011F00001295808F7005908E6005A08E5005B087D
:10120000E4006608F8006508F9006408FA0040295F
:10121000F701F801F901FA014029E301E409E509C0
:10122000E609E309E30A031D1B29E40A031D1B2940
:10123000E50A0319E60A62182928E2186B286219E0
:10124000A128D0280008E407031C2C29E50A031D67
:101250002C29E60A0319601484030008E507031C1F
:101260003429E60A0319601484030008801F803AB9
:10127000E60703186014621A3028E21A7228A828B8
:1012800008004308C7004208C6004108C5004008DE
:10129000C400C80153104708CC004608CB004508DD
:1012A000CA004408C9004708D7004608D6004508C8
:1012B000D5004408D400DB01DA01D901D8018A1134
:1012C000A0278A15031C682953144A08803ACA00CB
:1012D0004C08D7004B08D6004A08D5004908D4006E
:1012E000DB01DA01D9018E30D8008A11A0278A15D6
:1012F00003187C29031D97294C08D7004B08D600FA
:101300004A08D5004908D4008A11DF278A157908D0
:10131000D9007808D8008A1144268A157A08D000A6
:101320007908CF007808CE007708CD00682A4C08ED
:10133000D7004B08D6004A08D5004908D4008030B1
:10134000DB009630DA001830D9009630D8008A11C8
:10135000A0278A15031C602A4C08D7004B08D6002A
:101360004A08D5004908D400DB01DA01D901703000
:10137000D8008A1161268A157A08D7007908D60024
:101380007808D5007708D4008A11DF278A157908F4
:10139000D2007808D1004C08D7004B08D6004A0884
:1013A000D5004908D400DB01DA01D9017030D8003A
:1013B0008A1161268A157A08D7007908D60078083C
:1013C000D5007708D4005208D9005108D8008A11F6
:1013D00044268A1583145708DB005608DA0055089E
:1013E000D9005408D8007A08DF007908DE007808B0
:1013F000DD007708DC000020D701D601D5018E3052
:10140000D4007A08DB007908DA007808D900770878
:10141000D8008A1161268A157A08CC007908CB0099
:101420007808CA007708C9005208D9005108D800C6
:101430008A1144268A15D701D601D5018E30D400F1
:101440007A08DB007908DA007808D9007708D80034
:101450008A1161268A157A08D0007908CF007808A9
:10146000CE007708CD004C08D7004B08D6004A08BC
:10147000D5004908D4008A11DF278A157908D900D8
:101480007808D8008A1144268A1583105008DB009A
:101490004F08DA004E08D9004D08D8007A08DF005E
:1014A0007908DE007808DD007708DC0000207A0883
:1014B000D0007908CF007808CE007708CD00682AE0
:1014C0004C08D0004B08CF004A08CE004908CD0098
:1014D0004C08D7004B08D6004A08D5004908D4006C
:1014E0008A11DF278A157908D9007808D8008A116F
:1014F00044268A1583144C08DB004B08DA004A089E
:10150000D9004908D8007A08DF007908DE00780899
:10151000DD007708DC0000207A08CC007908CB00D9
:101520007808CA007708C900531C992A4E08803AE7
:10153000CE004C08D7004B08D6004A08D500490811
:10154000D400DB01DA01D901D8018A11A0278A155C
:101550000319E12A531CC62AC808031DC62A83148E
:101560005008DB004F08DA004E08D9004D08D800BB
:10157000DF01DE01DD017F30DC0000207A08D000D1
:101580007908CF007808CE007708CD005318E12AFB
:10159000480BE12A83105008DB004F08DA004E08A0
:1015A000D9004D08D800DF01DE01DD017F30DC000D
:1015B00000207A08D0007908CF007808CE0077089C
:1015C000CD004708D7004608D6004508D500440896
:1015D000D400DB01DA01D901D8018A11A0278A15CC
:1015E000031DF62AD001CF01CE01CD014D08F70031
:1015F0004E08F8004F08F9005008FA008A150A1240
:101600000B2DFF30A000AF01B001BB0183161F14EA
:101610009F141F159F1183131F30830585018312AB
:10162000850183168601831286010030A00083168F
:10163000870183128701831688018312880183162C
:10164000091089100911831289010230BD008A1125
:1016500012208A151F179F1783169F1783121F14B6
:1016600083161F109F141F159F158A1183129D2822
:101670008A151430BD008A1112208A158A11C820DB
:101680008A1583160511831205118316851083129E
:101690008514AE012E08F93C031CC72B2016200828
:1016A000831687008312071E602B8A11AD228A15CC
:1016B0008316051183120511831685108312851474
:1016C0008530C0008A1159208A157808BC00C100F5
:1016D0008A11F2218A157808A3008330C0008A118C
:1016E00059208A157808BC00C1008A11F2218A1598
:1016F0007808A2008130C0008A1159208A15780824
:10170000BC00C1008A11F2218A157808A1002308C3
:10171000BF000A30C0008A110D228A157708A9007F
:101720002308BF000A30C0008A110D228A157808EC
:10173000A8002208BF000A30C0008A110D228A15B5
:101740007708AB002208BF000A30C0008A110D22C2
:101750008A157808AA002108BF000A30C0008A1143
:101760000D228A157708AD002108BF000A30C0009D
:101770008A110D228A157808AC008A116C218A150D
:101780000530BD008A1112208A15AE0A4A2B8A1133
:10179000102E8A1583168510831285108316051165
:1017A000831205118A11C8208A15831685108312A9
:1017B00085108316051183120515AE012E08F93C1C
:1017C000031C682C20162008831687008312071E2E
:1017D000F42B8A11AD228A15831685108312851089
:1017E00083160511831205158730C0008A11592010
:1017F0008A157808BC00C1008A11F2218A15780880
:10180000A4008930C0008A1159208A157808BC00CC
:10181000C1008A11F2218A157808A5008D30C00018
:101820008A1159208A157808BC00C1008A11F2215A
:101830008A157808A6008B30C0008A1159208A15B5
:101840007808BC00C1008A11F2218A157808A70027
:101850002408BF000A30C0008A110D228A157708BB
:10186000A9002408BF000A30C0008A110D228A1581
:101870007808A8002508BF000A30C0008A110D2290
:101880008A157708AB002508BF000A30C0008A110E
:101890000D228A157808AA002608BF000A30C00069
:1018A0008A110D228A157708AD002608BF000A307C
:1018B000C0008A110D228A157808AC008A116C21AB
:1018C0008A150530BD008A1112208A15AE0ADE2B5A
:1018D0008316851083128510831605118312051156
:1018E0008A11C8208A150130BB00AE012E08FA3CCF
:1018F000031C4F2D20162008831687008312071E15
:10190000842C8A11AD228A150030F8001F08C739CF
:1019100078049F002030F700F70B8C2C8F2C0000F0
:101920001F151F19912C83161E088312B1001E0863
:10193000B2003208D9003108D8008A1144268A152D
:10194000D701D6012030D5007730D4007A08DB00EB
:101950007908DA007808D9007708D8008A1161265A
:101960008A157A08BF007908BE007808BD0077089C
:10197000BC007A08D7007908D6007808D500770827
:10198000D400DB01DA017A30D9008830D8008A111E
:1019900061268A157A08BA007908B9007808B80073
:1019A0007708B7003A08BF003908BE003808BD0004
:1019B0003708BC00C301C2012030C1008230C00022
:1019C0008A11D6268A157A08BF007908BE007808E1
:1019D000BD007708BC0083107A08DB007908DA00C4
:1019E0007808D9007708D800DF01DE01DD018030FA
:1019F000DC0000207A08BF007908BE007808BD002E
:101A00007708BC007A08C3007908C2007808C100D2
:101A10007708C00041297A08B6007908B50078082F
:101A2000B4007708B3003608D7003508D60034086C
:101A3000D5003308D4008A11DF278A157808BF0043
:101A40000A30C0008A110D228A157708A9003608CD
:101A5000BF003508BE003408BD003308BC00C30118
:101A6000C2012030C1008230C0008A11D6268A15FA
:101A70007A08D7007908D6007808D5007708D4000E
:101A80008A11DF278A157808A8008A112D218A1566
:101A90000530BD008A1112208A15AE0A762CBB01D2
:041AA0003E2B630076
:02400E00713F00
:00000001FF
;PIC16F877
;CRC=4D25  CREATED="23-Tem-19 16:50"
