:1000000001308A00D52900000A108A100A118207DF
:10001000C034F934A434B034993492348234F8348E
:10002000803490341C344634C3014308073C031C1D
:1000300033280310C20C03181F28071120280715A6
:1000400020112008831687008312A0102008831631
:10005000870083128714A01020088316870083125C
:100060008710C30A1528080020102008831687006F
:10007000831207144008C20014204108C200142053
:100080002010200883168700831207100800201014
:10009000200883168700831207143D08C20014202D
:1000A000201520088316870000008312BE013E0839
:1000B000073C031C7628201520088316870083122E
:1000C00007196428031065280314BF0CA01020082A
:1000D00083168700831287146D28A01020088316CA
:1000E0008700831287107428BE0A57282010200822
:1000F00083168700831207103F08F80008002010BD
:10010000200883168700831207108628A010200875
:1001100083168700831287108E30C000C1013420FF
:100120009030C000A430C10034208130BD00472091
:100130007808B900390880390319A2288030C00036
:10014000C10134208A110A12F5293A308400831340
:1001500000080319B9280130F800F701F70BAE28A1
:10016000F80BAD284A30F700F70BB428B728800BFE
:10017000AB2808004308F80142020318C2284208CD
:10018000F700CE28F7010830C400C20DF70D430870
:1001900077020318F700F80DC40BC5280800F70113
:1001A000F801420803104318F707F70CF80CC318BE
:1001B000F707F70CF80C4319F707F70CF80CC319FD
:1001C000F707F70CF80C431AF707F70CF80CC31AEB
:1001D000F707F70CF80C431BF707F70CF80CC31BD9
:1001E000F707F70CF80C08003F08C2000A30C300FC
:1001F000BA207808C0004008C2000A30C300CF20EF
:1002000078083F02C100400EF700F030F70577088C
:100210004104F80008003908BF00F4207808BF0046
:100220008630C0007808C10034203A08BF00F420AE
:100230007808BF008830C0007808C10034203B082F
:10024000BF00F4207808BF008C30C0007808C100DF
:1002500034203C08BF00F4207808BF008A30C0007A
:100260007808C10034203D08BF00F4207808BF00A2
:100270008430C0007808C10034203E08BF00F4205C
:100280007808BF008230C0007808C1003420BF0168
:10029000F4207808BF008030C0007808C100342006
:1002A0008A110A12052A3E08BF003F0EF7000F30E0
:1002B000F7057708C100C2000A30C300CF207808D4
:1002C000BE003F0EF700F030F7057708F70E0F304D
:1002D000F7057708BE073E08F80008008316880176
:1002E000831288010230B9009630BA00A520B90BFC
:1002F00074298316880101308312880083168601D1
:10030000B630831286006430BA00A52083168801B7
:1003100002308312880083168601B630831286006D
:100320006430BA00A5208316880104308312880047
:1003300083168601B630831286006430BA00A52089
:100340008316880108308312880083168601B63030
:10035000831286006430BA00A5208316880110300D
:100360008312880083168601B630831286006430BB
:10037000BA00A520831688012030831288008316D6
:100380008601B630831286006430BA00A520831639
:100390008801831288010230B9009630BA00A52086
:1003A000B90BCD298A110A12182BFF30A000831631
:1003B0001F149F141F159F1107309C0083131F30BB
:1003C000830500308600880085018312850183162D
:1003D000860183128601A00083168701831287019C
:1003E00083168801831288017F281430BA00A52063
:1003F0001930B9000730BA001330BB000530BC001B
:100400001030BD001530BE000B298530BD004720DF
:100410007808B900BE0053217808A8008330BD00D9
:1004200047207808B900BE0053217808A700813022
:10043000BD0047207808B900BE0053217808A60007
:100440008730BD0047207808B900BE0053217808E6
:10045000A9008930BD0047207808B900BE005321AB
:100460007808AA008D30BD0047207808B900BE008A
:1004700053217808AB008B30BD0047207808B900C5
:10048000BE0053217808AC002608C2000A30C30021
:10049000BA207808AD002608C2000A30C300BA208E
:1004A0007708B3002708C2000A30C300BA207808D2
:1004B000AE002708C2000A30C300BA207708B40093
:1004C0002808C2000A30C300BA207808AF00280804
:1004D000C2000A30C300BA207708B5002908C2005C
:1004E0000A30C300BA207808B0002908C2000A30D8
:1004F000C300BA207708B6002A08C2000A30C30039
:10050000BA207808B1002A08C2000A30C300BA2015
:100510007708B7002B08C2000A30C300BA20780859
:10052000B2002B08C2000A30C300BA207708B80016
:10053000A201A101A208031D172B2108313C031CB5
:10054000172B83160810831208142F080420B900F3
:10055000831686018312390886001E30BA00A52052
:1005600083160810831208108316881083128814CB
:1005700035080420B90083168601831239088600E5
:100580001E30BA00A52083168810831288108316A7
:100590000811831208152E080420B900831686015D
:1005A0008312390886001E30BA00A5208316081170
:1005B00083120811831688118312881534080420C9
:1005C000B900831686018312390886001E30BA00EE
:1005D000A5208316881183128811831608128312AE
:1005E00008162D080420B9008316860183123908E5
:1005F00086001E30BA00A520831608128312081246
:10060000831688128312881633080420B9008316D3
:1006100086018312390886001E30BA00A520831691
:10062000881283128812A10A0319A20A9A2A6E2933
:10063000A201A101A208031D972B2108313C031C34
:10064000972B831608108312081430080420B90071
:10065000831686018312390886001E30BA00A52051
:1006600083160810831208108316881083128814CA
:1006700036080420B90083168601831239088600E3
:100680001E30BA00A52083168810831288108316A6
:1006900008118312081531080420B9008316860159
:1006A0008312390886001E30BA00A520831608116F
:1006B00083120811831688118312881537080420C5
:1006C000B900831686018312390886001E30BA00ED
:1006D000A5208316881183128811831608128312AD
:1006E000081632080420B9008316860183123908DF
:1006F00086001E30BA00A520831608128312081245
:10070000831688128312881638080420B9008316CD
:1007100086018312390886001E30BA00A520831690
:10072000881283128812A10A0319A20A1A2B052A19
:02073000630064
:02400E00393F38
:00000001FF
;PIC16F877A
;CRC=D2E6  CREATED="25-Tem-19 23:22"
